:020000040800F2
:10000000B8090020690100087101000873010008A7
:1000100000000000000000000000000000000000E0
:100020000000000000000000000000007501000852
:10003000000000000000000077010008810D0008AA
:100040007B010008000000007B0100087B01000824
:100050007B010008150D00087B010008490D000810
:1000600000000000DD0C00087B0100087B01000897
:100070007B0100087B0100087B01000800000000F4
:100080007B01000800000000000000007B01000868
:1000900000000000950D0008C10D00087B0100085C
:1000A0007B0100087B0100087B0100087B01000840
:1000B0007B010008000000000000000000000000BC
:1000C00000F002F800F040F80CA030C808382418FE
:1000D0002D18A246671EAB4654465D46AC4201D180
:1000E00000F032F87E460F3E0FCCB6460126334272
:1000F00000D0FB1AA246AB4633431847384F0000E6
:10010000584F0000103A02D378C878C1FAD8520785
:1001100001D330C830C101D504680C6070470000BD
:100120000023002400250026103A01D378C1FBD813
:10013000520700D330C100D50B6070471FB500F0E7
:10014000DFF81FBD10B510BD00F095FD1146FFF79B
:10015000F5FF03F075FA00F0ADFD03B4FFF7F2FF11
:1001600003BC00F0B3FD0000074880470748004784
:10017000FEE7FEE7FEE7FEE7FEE7FEE70448054987
:10018000054A064B70470000910D0008C1000008A9
:10019000B8030020B8090020B8050020B8050020E9
:1001A000002203098B422CD3030A8B4211D3002374
:1001B0009C464EE003460B433CD4002243088B424E
:1001C00031D303098B421CD3030A8B4201D39446DB
:1001D0003FE0C3098B4201D3CB01C01A52418309CE
:1001E0008B4201D38B01C01A524143098B4201D388
:1001F0004B01C01A524103098B4201D30B01C01AB3
:100200005241C3088B4201D3CB00C01A524183082C
:100210008B4201D38B00C01A524143088B4201D359
:100220004B00C01A5241411A00D2014652411046B9
:1002300070475DE0CA0F00D04942031000D340422E
:10024000534000229C4603098B422DD3030A8B4264
:1002500012D3FC22890112BA030A8B420CD3890102
:1002600092118B4208D3890192118B4204D38901E8
:100270003AD0921100E08909C3098B4201D3CB0126
:10028000C01A524183098B4201D38B01C01A5241DB
:1002900043098B4201D34B01C01A524103098B42DF
:1002A00001D30B01C01A5241C3088B4201D3CB00CA
:1002B000C01A524183088B4201D38B00C01A5241AD
:1002C000D9D243088B4201D34B00C01A5241411A84
:1002D00000D20146634652415B10104601D34042B2
:1002E000002B00D54942704763465B1000D3404263
:1002F00001B50020C046C04602BD70477047704738
:1003000070B5064C7C44064D7D4403E0206800191E
:100310008047241DAC42F9D170BD00004C4D000057
:10032000584D00000246C80FC00781434B0030B54E
:100330004B405B009B0D20D01923DB06C91801231D
:100340001B05994220DB0324A40704251346AB4078
:100350000BD3002B04D1EB0613409B00E34204D4E3
:1003600001246407002312195941FF231B059942F8
:100370000BD2C9000143500F09E0CB0204D5014361
:100380000803024305D0054830BDFF21C9050843D5
:1003900030BD084607210905884330BD0000C07FF5
:1003A000F0B5F94D0C091E092C402E402F468BB09C
:1003B000A7437DD0B543FCD0002E7AD0002CFCD0D2
:1003C0000D465D40ED0F2543AC1BFF25AD046419C0
:1003D0000894C502440DC9022143500DDC020443B8
:1003E0000120C00701430443D2020191200C110CEB
:1003F00000958C46010423468B430A91614609040B
:10040000E24D8A430991010A7D44491980390978EE
:1004100005464D4301266D18F605751B6943C90C49
:10042000640B891C4C436418B5012C1B250C2E044D
:10043000B4434C434D43210C691889090591009D33
:10044000E90701D00121C90704912C4601996708E9
:10045000CD072F434C08059DE10B4D432D0C29463C
:100460006646754302950D4645432E46029D7D1B0B
:10047000B44100950D465D4301942C0C2F040D46AC
:100480005543AE462D0C3D43029503947546049C9E
:100490002D04641B049406D2029C039D641C002658
:1004A00075410395029401AC70CC009F7D1B01E067
:1004B0003EE162E1B4410904009507910194059978
:1004C000A4086143090C0C464443650BE7040C4641
:1004D00066467443A646640B3C43039502947446F7
:1004E000049DE4042C1B049406D2029C039D641C0E
:1004F000002675410395029401AC70CC009F7D1BD2
:10050000B44101940C465C430095650FE7000C462E
:100510005443A646640F3C43039502947446049DDD
:10052000E4002C1B049406D2029C039D641C00264C
:1005300075410395029401AC70CC009F7D1BB441C2
:10054000AE09AF06049DC900AD092F43049DA40662
:10055000AD060495079D344369180791059DE10B8D
:100560004D432D0C29466646754302950D4645437D
:100570002E46029D7D1BB44100950D465D430194BE
:100580002C0C2F040D465543AE462D0C3D430295D1
:1005900003947546049C2D04641B049406D2029CAB
:1005A000039D641C002675410395029401AC70CC38
:1005B000009F7D1BB44101948C050694079C890A19
:1005C000611800950791019C0599A4086143090CE5
:1005D0000D464543680BEF040D46644665436C0BBE
:1005E0003C43049FED047D1BAC4602D20025641CF5
:1005F0006841009E019D371B85410846584301957F
:100600000C46460FC5005443600F28436546E4007E
:100610002C1B02D20025401C6E41019D3F1AB541A2
:100620002846BD09800628438446A009BF064E021D
:100630000699A40676180743079D002068410A9989
:10064000079019430020099B00906046FF1913434F
:100650004041E20F64003A43A4460446D71A8C4155
:10066000A04203D90120009020463A46C70F9418B3
:1006700040416246D20F2243644664000494009CC9
:10068000BE466400D71AA446044602978C417746BA
:10069000002F01D1A04204D96046401C8446029A32
:1006A0002046C40FA64694184041049A0546D20F2E
:1006B000224364466400D31A8D417146002901D15A
:1006C000A84202D928461A46641C10430122002879
:1006D00000D0164361020020079B891904465C4143
:1006E0000223002C02DB491813466441089DCE0A00
:1006F0002D145D194B056705E10A2C050D190899A4
:100700003E43C9076940002B08D0934006D300221E
:10071000761C5141002B01D1760876001C4A002D31
:1007200043DB154241D0AA433FD030460BB0F0BD69
:1007300006180D464D41174C7642AC411AD3951818
:100740001C465C41134A6D42A24113D3012252055B
:100750004C00D4420AD15C00D4420BD04B4002D5AD
:1007600092021143E2E749004908DFE75940C90F07
:10077000C90718E000200849D8E7054801420DD113
:100780000342F7D0F2E700000000FF07684B0000CB
:100790000000F07F0000E0FF0000F87F11485940A2
:1007A0000143C01241400020C0E70123089A9B0684
:1007B0009A4205DC032252078918C90FC907B5E719
:1007C000052252078918074A1143D2125140ADE75A
:1007D00070B515461C4602460B4628462146FFF7D3
:1007E000DFFD70BDFFFFFF7F1F22030C02D10F2230
:1007F000000402D0030E03D004E00020014670473D
:100800000002083A030F01D10001121F830F01D12A
:100810008000921E002801DB4000521E1205511874
:100820004205C012411810467047C10FC90700D0D9
:100830004042012292071143D6E701218907D3E7FD
:10084000F0B58B4C0F09254689B0BD437BD01D09FF
:100850002646AE43FAD00E465E402740F60F3E4392
:10086000254071D024012142FBD0FF24AD19A404FE
:100870002D1B039501252D05DB02DB0AC9022B4345
:10088000C90A29431E010901040F130F0501214361
:100890001701880B820391432D098C46A90B1E4337
:1008A0008A039543B30B9A0396433F09BA0B94030B
:1008B000A74302962E467E430497B6464E19D71993
:1008C0000C460196544305977E43371B7646BF1B63
:1008D0003601B646BE0B361900967646BC0437196B
:1008E000009C01D3641C00946400002F01D00126F9
:1008F0003443029E049F754366467E430496760009
:1009000034196E0034190094029C019E1C19664330
:10091000751BAE46069465464519059C05956C43C6
:10092000594375460891691A0191049E0146514345
:10093000A41B0491611A009C0791E10605D061098E
:100940000122114302E072E06EE06109089D002778
:100950002C0A2D066918049D7C412A0A2D06691867
:10096000019D6241AC0DAD026D185441079A910D85
:10097000920255196141029A644658435443069BBA
:10098000059A5A43121A131B9A0E9B015B187A415F
:10099000010B0005C3185141220A200644195A418F
:1009A0009A4200D2491C01204002814203D3152300
:1009B0000226F64302E014230326F6432020C51A3C
:1009C000A9401746AF40DA400A4320460399D84071
:1009D0000914731819055118039A3843D207514066
:1009E000AC4009D00122944006D30022401C514162
:1009F000002C01D1400840001E4A934212D301222C
:100A000003989206904207DB0520400709181A4810
:100A10000143C012414004E0032040070818C10F01
:100A2000C907002009B0F0BD0020F107FAE705185A
:100A30000C464C4111486D42A04115D394181A46FA
:100A40005A410E48644290410ED301204A004005AD
:100A5000824209D35A00824206D35940C90F084A3C
:100A6000C90700201143DDE700200649DAE700004E
:100A70000000FF07FE070000FFFFFF7F0000E0FF10
:100A80000000F07F0000F87FF0B5FF252D04C609B7
:100A9000C209FF2704462E400137CB093E43484098
:100AA0002A402B400746002A6BD0002B69D0AA426F
:100AB00067D0AB4265D0002800DA32460125ED054B
:100AC00029432C4309022002090AD21A4B0C7F2425
:100AD000E31A434C000A7C44E35C7D24240412198D
:100AE00014145B00A218884201D3521C00E040009D
:100AF00049420C465C4324115C43DB016415E31856
:100B0000040A5C43C502200D0C4644436419250ABF
:100B10005D432303EC0C0D46654300030019EB18FD
:100B20004C42A34201D35B18401CD4052018002B73
:100B300007D05B00C91804D3401C002901D140082C
:100B400040003F2189048A4209D3002A08DC1106AB
:100B5000090F04D0032149074018C00FC007F0BD9A
:100B600001224100120689187F2252069142F6D2D4
:100B700005214907C84201D59010F0BDFF20C005EE
:100B8000F0BD002F00DA32461648AA4207D2AB4227
:100B900005D21902090E17D0F80FC007F0BDFF25C6
:100BA00063002D06AB42F9D84900A942F6D8AB4202
:100BB00001D1A942F2D0A94201D1002101E0610096
:100BC0004908D0050843F0BD1102090EFBD0FF20F3
:100BD0000243D005F0BD0A460146104654E7000026
:100BE0001A4500000000C07F0102C21504D0012395
:100BF000DB071943002A0ADB9E239A1A02D408460F
:100C0000D0407047FF2241001206914201D90020D6
:100C10007047C017C04370471F22030C02D10F2238
:100C200000041CD0030E01D10002083A030F01D1C9
:100C30000001121F830F01D18000921E002801DBEA
:100C40004000521ED205511802125118192290402C
:100C500004D3491C002801D14908490008467047BF
:100C6000C10FC90700D04042012292071143D3E7C8
:100C700001218907D0E7754600F024F8AE4605004B
:100C800069465346C008C000854618B020B5FFF736
:100C900075FA60BC00274908B6460026C0C5C0C525
:100CA000C0C5C0C5C0C5C0C5C0C5C0C5403D490060
:100CB0008D46704710B50446C046C0462046FFF733
:100CC0004CFA10BD00487047580300200149182015
:100CD000ABBEFEE726000200704700000C488068AB
:100CE000400840000A4988600120486000200BE06D
:100CF00040210522120791611146096940221140E5
:100D0000002900D002E0401C6428F1D370470000A5
:100D10000000024010B50948C068C007C00F002895
:100D20000AD0074800F050FE01221146054800F0A5
:100D3000B8FF01200149C86010BD00000018024042
:100D400020000020B402002010B50A48C06801212C
:100D50000903084000280BD0074800F027FE0122B5
:100D60000221064800F09DFF012000030149C860F0
:100D700010BD00000018024020000020B402002036
:100D800010B5024800F02CFC10BD000084020020C9
:100D90007047000010B508480069C007C00F002860
:100DA00008D0064800F086FD03480069400840006E
:100DB0000149086110BD000000440140000000200E
:100DC00010B522480069C007C00F00283DD01F4859
:100DD0000068400840001D49086000200CE0012127
:100DE00089050522120791611146096940221140C7
:100DF000002900D104E0401C7D21C9008842EED3C7
:100E00006421134801F05CFF124800F0A7FF0020A6
:100E10000BE0402105221207916111460969402229
:100E20001140002900D002E0401C6428F1D30020CA
:100E30000649486208460069800880000861084643
:100E40000068012108430149086010BD00480140C5
:100E50004803002008000020002805DBC206D20E4F
:100E600001219140014A11607047000000E100E05B
:100E700010B5002819DB1A4A03231B02D218830875
:100E80009B00D2588307DC0EFF23A3409A438B07B5
:100E90001B0E8407E40EA3401A43114B03242402C3
:100EA0001B198408A4001A5118E00E4A03071B0FEF
:100EB000083B9B089B00D2588307DC0EFF23A3400E
:100EC0009A438B071B0E8407E40EA3401A43054B7D
:100ED0000407240F083CA408A4001A5110BD000008
:100EE00000E100E01CED00E030B587B005460024CD
:100EF000182301AA0E490F4802F002FB044368467A
:100F00000079002808D06846C07AEA2804D16846EB
:100F100000790949C88202E0FF200749C8820C20F5
:100F200005490880012048808880204607B030BDF0
:100F30000078000848030020200300207FB5044605
:100F400021461431204600F0CFF800282CD101258D
:100F500002900390009001900F21154801F096FB3C
:100F60001448817D68460172EA21C173082302AAF0
:100F700011490F4801F0B8F908236A460E490C4898
:100F800002F0BEFA002008E06946095C02AA125C81
:100F9000914200D00025411CC8B20828F4DB07218B
:100FA000064800F02AFE00BF002004B070BD00001B
:100FB000480300202003002000780008B40200202D
:100FC00070B5044621461031204600F08DF8002807
:100FD00019D10E4801F010F80546022D01D0032D5D
:100FE00010D1A06A401CA062A06A0F280AD9012172
:100FF000064800F0AAFF0020A062642207210448EE
:1010000000F04FFE00BF002070BD00001400002063
:10101000B402002010B50446FF212D310D4801F027
:1010200011FE0D48FFF760FF0C48817D094801F073
:10103000E9FC002124200155132125200155002120
:10104000262001552720015501212C200155002083
:1010500010BD0000480300201200002020030020E3
:1010600010B5044621460831204600F03DF800281E
:101070001DD1104800F014FC0E4800F01BFC2C2081
:10108000005D01280CDD2C20005D401EC1B22C202B
:101090000155FF2291320421074800F002FE06E0CC
:1010A00001212C2001550421034800F0A6FD002059
:1010B00010BD000000000020B40200200146086AB4
:1010C0007047000002460020032904D0082905D1FA
:1010D000044B936104E0034BD36001E0012000BFA7
:1010E00000BF70470000FFFF02460868D3699842BE
:1010F00002D30020086070470120FCE770B5054668
:101100000D48047B601CC4B2172C00DD002421466E
:101110000A4801F007F808210948FFF7D3FF0948FA
:101120000078002804D101220421074800F0B9FD0D
:1011300001200449087070BD200300201A0000201F
:101140008402002007000020B402002070B504468D
:1011500000252420005D00280CD02520005D1328E8
:1011600006DA2520005D401CC1B2252001550DE0A6
:1011700001250BE02520005D092806DD2520005D06
:10118000401EC1B22520015500E001252520005D4B
:101190000649085C0649C8822520005D034A115CA7
:1011A000044801F02FFC002070BD0000604F0008D3
:1011B0002003002048030020F8B50446211D2046E6
:1011C000FFF792FF002877D1564800F015FF05463B
:1011D000554800F023FE554800F006FC0646330053
:1011E00002F000FA099406366B7394949486940086
:1011F000022D15D1052000070069E90208400028EA
:1012000025D00020A0622046FFF778FF474800F075
:10121000CDFBFF225F320221454800F042FD16E07F
:10122000032D14D10520000700690121090308409E
:1012300000280CD00020A062012124200155204666
:10124000FFF784FF3B4A0221394800F02AFD65E0A0
:101250000020A062022D21D13748077B3748007853
:10126000002812D1781CC7B2172F00DD002739469D
:10127000334800F057FF08213248FFF723FF0122CF
:1012800004212B4800F00DFD00E000BF00202B4999
:1012900008700221264800F0B0FC0CE0032D0AD1B2
:1012A00001220421224800F0FCFC012124200155E8
:1012B0002046FFF74BFF31E032E0012D04D101223F
:1012C00004211B4800F0EDFC28E0012D0FD1022184
:1012D0002C20015501220421154800F0E2FC0221D6
:1012E000104800F032FE0221114800F086FC15E0A3
:1012F000012204210E4800F0D4FC01210C4800F02A
:101300007CFC0321074800F020FE00BF02210848B2
:1013100000F073FC00200949087000BF00BF00BF47
:101320000020F8BD1400002008000020200000204C
:10133000B40200208A0200002003002007000020E1
:101340001A0000208402002070B505461148847AF6
:10135000601CC4B23B2C00DD002400210E4800F0CC
:1013600099FF21460C4800F07FFF08210B48FFF74A
:10137000A9FE0B480078002804D101220421094865
:1013800000F08FFC084800F01FFB012004490870A2
:1013900070BD0000200300201A00002084020020FD
:1013A00007000020B4020020200000207CB5044685
:1013B000012500200190009000BF6A4601A9214844
:1013C00000F038FC0098E06168460079030002F004
:1013D00009F9092E060B15101A1F24292E00204684
:1013E00000F032F8054626E02046FFF7E5FE054608
:1013F00021E02046FFF734FE05461CE0204600F0C1
:1014000037F9054617E02046FFF7DAFD054612E0FA
:10141000204600F011FA05460DE02046FFF78EFD4C
:10142000054608E0204600F0B5F9054603E005480A
:1014300000F029FC00BF00BF684600790028BCD13D
:1014400028467CBDB4020020F8B50446214620465B
:10145000FFF74AFE00287AD1584800F0CDFD054636
:10146000574800F0DBFC574800F0BEFA0646330050
:1014700002F0B8F8099706979797356E7689970026
:10148000022D15D1052000070069C007C00F0028F4
:1014900024D00020A0622046FFF756FF494800F004
:1014A00093FAFF2205320121474800F0FAFB15E0CC
:1014B000032D13D1052000070069C007C00F0028C5
:1014C0000CD00020A0620021242001552046FFF707
:1014D0003DFE3E4A01213C4800F0E3FB69E000206C
:1014E000A062022D25D13A48877A3A480078002830
:1014F00016D1781CC7B23B2F00DD002700213648EB
:1015000000F0C8FE3946344800F0AEFE08213348EA
:10151000FFF7D8FD012204212B4800F0C2FB00E0B8
:1015200000BF00202B4908700121274800F065FB0F
:101530000CE0032D0AD101220421234800F0B1FB65
:101540000021242001552046FFF700FE31E032E063
:10155000012D04D1012204211B4800F0A2FB28E048
:10156000012D0FD102212C20015501220421164802
:1015700000F097FB0221114800F0E7FC012112481E
:1015800000F03BFB15E0012204210F4800F089FB2D
:1015900001210D4800F031FB0321084800F0D5FC83
:1015A00000BF0121084800F028FB0020094908700D
:1015B00000BF00BF00BF0020F8BD000014000020E5
:1015C0000800002020000020B40200208A02000051
:1015D00020030020070000201A00002084020020C1
:1015E00010B50446206A401C206201211F4800F00B
:1015F00016FB002802D02068401C206002211B48F6
:1016000000F00DFB002802D06068401C60600421DF
:10161000164800F004FB002802D0A068401CA0601F
:101620000321124800F0FBFA002802D0E068401CB9
:10163000E06005210D4800F0F2FA002802D0206990
:10164000401C20610721094800F0E9FA002802D077
:101650006069401C60610821044800F0E0FA00283D
:1016600002D0A069401CA06110BD0000B40200209F
:10167000F0B585B0044621460C312046FFF734FD15
:10168000002879D1049004A93D4801F00BFA002804
:1016900071D16846008AFFF7D0F805460022394B21
:1016A000FFF7CEF80022384B01910090FEF778FE4C
:1016B00003910290FEF736FE07463846FFF794FA8C
:1016C00081B22620005D4200304881522620005D14
:1016D000401CC1B226200155005D062802DD002114
:1016E0002620015529481838008B28491839888444
:1016F000012019E042002549895A002911DD2349BA
:1017000018398A8C43001831C95A51181F4A183A9F
:101710009184918CCA0F521852101C4B183B9A841A
:1017200000E003E0411CC8B20628E3DB1748183884
:10173000808CB1280DDD2720005D012809D01348D9
:101740001838817D0E4801F05DF9012127200155EF
:1017500010E00E481838808CA3280BDA2720005D93
:10176000022807D00A48417A054801F04BF90221C6
:101770002720015500BF00BF002005B0F0BD0000CC
:101780004803002000C8A9400000B04038030020F2
:10179000604F000810B586B0044621461831204637
:1017A000FFF7A2FC00283FD1059005A9204800F0D2
:1017B00061FC00280FD16846007D00280BD0002175
:1017C0001B4800F067FD0021194800F04DFD002185
:1017D000174800F0A7FC0020049004A9144800F06A
:1017E0002FFC002803D16846007C124908810020A4
:1017F000039003A90E4800F009FC002803D16846B5
:10180000007B0C49488100210291019100916B46B7
:1018100001AA02A9064800F0F1FC002803D168469D
:10182000007A0449888100BF002006B010BD000086
:101830001A0000202003002001460248024A1060DE
:1018400000207047AAAA00000030004070B505468D
:1018500000240AE060000D4A115A0D48FEF7A0FC72
:1018600061000C4A5052601CC4B2302CF2DB0948B3
:101870004030408808490880084601882D204001F2
:10188000FEF798FC0549087070BD0000803800081C
:1018900090D003003000002004000020020000204F
:1018A0007F21024A1170024A117070470600002021
:1018B00001000020F8B53148C069C007C00F0028FA
:1018C00008D12F4801882F4800F082FE01212D48C1
:1018D00000F09AFE2C480078002828D000241CE054
:1018E00029480078FFF7C4F9009028480078604341
:1018F0008000274A1158009801F002FF0746254949
:10190000FFF7C2F80646244901F0B4FE0546FFF78A
:101910006BF922490855601C84B21948008884423A
:10192000DEDB19480078401E1749087024E01C4887
:101930000078FF2811D0002005E019490978174ADE
:101940001154411C88B20E4909888842F5DB1448BD
:101950000078401C124908700EE00B4800780028FF
:101960000AD17F200E49087007490870054800F029
:10197000A5FD044801F02CFE0020F8BD0000024047
:101980000400002048030020010000200200002085
:10199000E03800080000C8420000FE42900000202D
:1019A000060000200146887B7047000010B5044601
:1019B0000448FFF783FB2060002060710120207144
:1019C000A07310BD8402002010B504460548FFF73F
:1019D00075FBA06000206073012020730220A073BB
:1019E00010BD000084020020F8B504460025002741
:1019F000207900285FD07B48FFF760FB2168401A00
:101A00000090009828280BD20520000700690121CA
:101A100009030840002801D0012542E0092540E0E3
:101A2000009828280FD37049009888420BD20520CF
:101A300000070069012109030840002801D00125A1
:101A40002FE002252DE068490098884221D37D21AE
:101A50004901009888421CD2607900280DD10520E8
:101A600000070069012109030840002803D0012074
:101A70006071032515E0022513E0052000070069C9
:101A8000012109030840002801D0012509E00925AA
:101A900007E07D2149010098884201D3042500E038
:101AA0000925092D01D0012D04D0032D02D00020DD
:101AB0002071607100BF207B00285BD04948FFF790
:101AC000FDFAA168401A0090009828280AD2052043
:101AD00000070069C007C00F002801D001273FE0C0
:101AE00009273DE0009828280ED33F4900988842F6
:101AF0000AD2052000070069C007C00F002801D0E6
:101B000001272DE005272BE03749009888421FD395
:101B10007D214901009888421AD2607B00280CD1AF
:101B2000052000070069C007C00F002803D001206E
:101B30006073062714E0052712E0052000070069FE
:101B4000C007C00F002801D0012709E0092707E0DE
:101B50007D2149010098884201D3072700E0092729
:101B6000092F01D0012F04D0062F02D000202073AE
:101B7000607300BF002D10D0002F0ED1042D0AD1AC
:101B8000052000070069C007C00F002801D0082603
:101B900026E02E4624E02E4622E0002F11D0002D14
:101BA0000FD1072F0BD10520000700690121090380
:101BB0000840002801D0082612E03E4610E03E46CC
:101BC0000EE0002D0CD0002F0AD0012D01D10126EE
:101BD00006E0032D01D1032602E0042D00D10826E2
:101BE0003046F8BD84020020DC05000000210171B0
:101BF0000173417141738173704710B50246002033
:101C000009290BDA00240C234B439B181C717D24FB
:101C1000E4000C234B439B189C60084610BD024611
:101C20000C20484380180079002801D0012070471B
:101C30000020FCE770B5034600200870002400BFB8
:101C40001DE00C254543ED182D79012D15D10C25EE
:101C50004543ED186D79012D0FD00C2545435D5D91
:101C60000D700C254543ED18AD68156001260C2557
:101C70004543ED186E71012403E0451CE8B20928C4
:101C8000DFDB204670BD0146002006E000230C2269
:101C9000424352185371421CD0B20928F6DB00208F
:101CA000704730B503460020092909DA01250C24C4
:101CB0004C43E41825710C244C43E418A2600846F8
:101CC00030BD0121C1600022027442747D22D20025
:101CD0004261022181610022027742777D22D20097
:101CE000026204210163002234210A5435210A547E
:101CF0007D22D200826303214162002228210A54FE
:101D000029210A547D22D200C2620521C16300222A
:101D100040210A5441210A547D22D2004264062106
:101D2000816400224C210A544D210A547D22D200A4
:101D3000026507214165002258210A5459210A549D
:101D40007D22D200C26508210166002264210A5466
:101D500065210A547D22D20082667047FEB5044692
:101D600000252D4988890A21FEF724FAC6B22A499E
:101D700088890A21FEF71EFACFB2274948890A212D
:101D8000FEF718FAC0B20290234948890A21FEF7EB
:101D900011FAC8B20190FF2000901F490889C10FB5
:101DA000091849104900411A02D00A20009001E0A8
:101DB0000B2000902078030001F014FC05040A10A9
:101DC000161C220000223146204600F02BF817E0B6
:101DD00001223946204600F025F811E00222204673
:101DE000029900F01FF80BE003222046019900F051
:101DF00019F805E004222046009900F013F800BF0E
:101E000000BF2078042803DA2078401C207001E00D
:101E1000002020702846FEBD2003002000214160E4
:101E200070470000FEB505460E461446002002909D
:101E30000B2E01DC042C02DD012002907AE0002749
:101E400000200190230001F0CDFB0504070A0D10CE
:101E50001300012001900BE00220019008E0042013
:101E6000019005E00820019002E00220019000BFEF
:101E700000BF330001F0B6FB0C07090B0D0F111367
:101E80001517191B1D1FA02715E0BD2713E0642798
:101E900011E02C270FE039270DE02A270BE022273D
:101EA00009E0BC2707E0202705E0282703E0DF271B
:101EB00001E0FF2700BF00BF1F4800F09DF8022887
:101EC00027D16868401C6860FF21F5316868884246
:101ED00001D100206860FF2191316868884214D9DF
:101EE0001648FFF75FFD012805D1002C01D0012C19
:101EF0000BD1FF2709E01148FFF754FD022804D158
:101F0000022C01D0032C00D1FF27042C09D1FF277C
:101F100007E0094800F070F8032802D1042C00D132
:101F2000DF276946019808704F700222044801F0CB
:101F300025FB00BF0298FEBD1400002020000020F9
:101F40004803002000210170704702788A4202D0C5
:101F5000002202704170704770B504460025607819
:101F6000002806D0012805D002280DD003281FD153
:101F700014E000BF2078012805D001202070204601
:101F800000F01AF8012513E02078022805D002207D
:101F90002070204600F00FF8012509E02078032882
:101FA00005D003202070204600F029F8012500BF4D
:101FB00000BF284670BD704710B504466322042157
:101FC0000B48FFF76EFE002206210948FFF769FE65
:101FD000084A08210648FFF764FE064A0321044820
:101FE000FFF75FFE034A05210148FFF75AFE10BDC7
:101FF000B4020020E70300000146087870477047EC
:102000000121417000210170704700007CB5054638
:102010000C460126012001AB0246D0210090074862
:1020200000F026FC002806D168460179284600F019
:10203000C3F82070002630467CBD00004803002015
:102040007CB505460C460126012001AB0022D021BB
:102050000090074800F00CFC002806D16846017982
:10206000284600F0A9F82070002630467CBD00000C
:1020700048030020F8B505460C46012600200090D4
:1020800001226946284600F00FF8002809D1207087
:102090006846007880210840002801D00120207087
:1020A00000263046F8BD0000F8B507460C46154638
:1020B0000026002D09D0012023460F22D0210090B8
:1020C000074800F0D5FB064608E0012023460E2213
:1020D000D0210090024800F0CBFB06463046F8BD08
:1020E0004803002077B581B0064614460125002C30
:1020F00009D0012002AB0F22D0210090084800F047
:102100001FFC054608E0012002AB0E22D021009002
:10211000034800F015FC0546284604B070BD0000D9
:1021200048030020FEB506460C460120029001AB94
:102130000222D02100901F4800F09AFB002837D1DE
:1021400068460079402108408509002D20D00B2CDD
:1021500001DD012000E00020074601946846007977
:102160000B2804DD684600790C38C1B2019168463D
:102170000079002801D10C20019069460979304688
:1021800000F02CF87901084340210843019006E053
:102190002146304600F022F8BF210840019001207E
:1021A00001AB0222D0210090024800F0C9FB02904E
:1021B0000298FEBD4803002030B50446C817000F42
:1021C000401800110A2568430A46CD172D0FAD1897
:1021D0002D112D014D1B4019C0B230BD70B5054603
:1021E0000C460A212046FDF7E5FF06010A2120469C
:1021F000FDF7E0FF7018C0B270BD0000FEB50746E5
:102200000C4615461E460120029001AB0222D02149
:102210000090144800F02CFB002821D1684600797A
:102220004021084080092870287800280ED0684690
:102230000079202108404009307068460079C106C5
:10224000C90E3846FFF7B8FF207007E068460079EE
:102250008106890E3846FFF7AFFF207000200290FC
:102260000298FEBD480300207CB504460D46294671
:102270002046FFF7B3FF0190012001AB0246D021B9
:102280000090034800F05CFB064630467CBD000031
:10229000480300207CB505460E46012431462846F9
:1022A000FFF79CFF0190012001AB0022D02100909C
:1022B0000C4800F045FB002811D1002100910122BB
:1022C00069462846FFF7F0FE044668460078410656
:1022D000490E01222846FFF705FF044300BF2046B0
:1022E0007CBD000048030020FFB584B01C460120DF
:1022F000039005994907490F002969D12046E11744
:10230000490F0918C910C900611A61D105980290D6
:102310000D460E462046E117490F09184903090CDE
:1023200001912D482D490861049800F0DFF800283C
:102330004BD12948294908610846406901210843D1
:1023400026494861049800F083F9002000901FE0BE
:1023500000200DE007210A1A0699895C0D43072821
:1023600004DA2B0E310219432D020E46411CC8B26D
:102370000828EFDB029805604660049800F068F9D1
:1023800003900298083002900098401C80B20090A0
:10239000019900988842DBDB049800F059F90F4856
:1023A0000069C007C00F002803D001200B49086155
:1023B00001E00120039009484069400840000749B6
:1023C0004861049801F084F801E00120039000BF07
:1023D000039808B0F0BD0000FFFF0000002002409D
:1023E0002549896B01221143234A91631521234A10
:1023F00051600021224AD1612249916222495162F1
:10240000642111621146C9690122920391431C4A59
:10241000D1611146C96980221143194AD16111461F
:10242000C969032292029143154AD1611146C969D3
:1024300040229143124AD1611146C9699215114354
:102440000F4AD1611146C969202211430C4AD1615A
:102450001146C96910221143094AD1611146C9695F
:10246000032212031143064AD1611146C9690222AF
:102470001143034AD1617047001002400008024036
:102480000000024090000020382C01400849C96B30
:1024900002221143064AD1630649074A9162114656
:1024A000096804221143044A116000211161704738
:1024B00000100240BF120000000400400949C96931
:1024C00049084900074AD1612021516006494969FC
:1024D00001221143044A5161114609684908490023
:1024E0001160704700000240002C014010B5044606
:1024F000204600F0ADF807484069C00FC00700282B
:1025000004D005480349886004488860204600F0EC
:102510009FF810BD0020024023016745AB89EFCD35
:10252000284909680122D2021143264A116000217C
:10253000254A9162FF21D16200215162114609684A
:1025400080221143204A11601146096A202211435A
:102550001D4A116211468969921491431A4A916188
:1025600011468969032252031143174A91611146AA
:102570008969D2141143144A916111468969032271
:1025800012029143104A91610A2191631146C96870
:10259000121511430C4AD1600B49403149680B4A6E
:1025A0001143094A403251600749096A1022114318
:1025B000054A11621146096801221143024A11605D
:1025C0007047000040100240002C01400C800000C9
:1025D0000B4AD26952085200094BDA6120225A6034
:1025E0001A461162074A126801231A43054B1A6002
:1025F000034AD26901231A43014BDA617047000094
:1026000000000240002C014002460F48814219DAC6
:102610000E480068400840000C4B18600A204843F0
:10262000D862002058635862184640690123184355
:10263000064B58611846006801231843034B186085
:10264000002070470120FCE76419000000440140AD
:1026500010B5024600200B4904E0491E002901D1B3
:1026600001200CE0084B1B69012424042340002BAB
:10267000F3D1054B1B69A4002340002BEDD100BF13
:1026800010BD0000400D03000020024070B505465B
:102690000C46012006460F2C3CDC2846FFF726FF9F
:1026A0001D481E4908612846FFF7D2FF00282ED199
:1026B00019481A4908610846406902210843174928
:1026C000486108464069E1000843144948610846EA
:1026D000406901210904084310494861002002E0D3
:1026E00000BF411CC8B26428FADB2846FFF7B0FFE0
:1026F0000A480069C007C00F002802D0012007491E
:102700000861064840690221884304494861284617
:1027100000F0DEFE70BD0000FFFF00000020024060
:1027200010B504462E480068012108432C49086072
:102730002C48006AC008C0002A4908622948403075
:102740000068012108432749403108602548403886
:102750000068012108432349403908600120C8600E
:1027600002210520FEF784FB0520FEF775FB1D48BE
:102770004038C06EC108C9001A484038C1661948BF
:1027800040300068012109030843164940310860C0
:1027900014484038006889140843124940390860D9
:1027A0008814C86002210720FEF762FB0720FEF7AD
:1027B00053FB1520FEF750FB02211520FEF758FBB6
:1027C0001620FEF749FB01211620FEF751FB0920D8
:1027D000FEF742FB01210920FEF74AFB10BD000075
:1027E00040100240401802400B490C4A516191616F
:1027F0001146096904221143084A11611146096909
:1028000002221143054A116111460969012211434F
:10281000024A116170470000FFF9000000E000E08B
:10282000104909680122520411430E4A11600E49F1
:102830000968802211430C4A11601146096804227C
:102840001143094A1160002111610849916209216F
:10285000D162002151621146C96801221143024A26
:10286000D16070474010024000440140FF18000052
:10287000FFB582B016461F460024002001900123B8
:102880000021039A029800F091F904462948008833
:10289000009008E00098401E80B200900098002848
:1028A00001D1012405E02448806902210840002864
:1028B000F0D000BF20482030067201210B9B039A04
:1028C000029800F073F904431C4D14E01A48806923
:1028D00004210840002808D01748406AC2B2019875
:1028E000411CC9B201913A54144D002D01D101246B
:1028F00013E0681E85B21048806940210840002816
:1029000005D10D488069102108400028DED00A4812
:102910008069042108400028D8D100BF029800F047
:1029200095FD04430B990198884200D0012420466C
:1029300006B0F0BD180000200054004070170000E1
:10294000FFB581B01F460A9CFF2C02D1012005B0C3
:10295000F0BD002500200090601CC3B20021029A47
:10296000019800F023F900902448068806E0701EC4
:1029700086B2002E02D10120009005E02048806937
:10298000022108400028F2D000BF1D4920310398E1
:102990000872002C25D01949088814E0411E88B21D
:1029A000002802D10121009119E01549896902220C
:1029B0001140002907D029466A1CD5B2795C104A1B
:1029C00091620E4908880E49896940221140002908
:1029D00005D10B498969102211400029DED000BFC2
:1029E00000BF019800F032FD009908430090A54215
:1029F00001D0012000900098A9E7000018000020F5
:102A0000005400400246FF290BD1114840690123C0
:102A100018430F4B58611846006840084000186082
:102A200015E00B48006840084000094B1860184644
:102A30004163002058621846006A01231843044B82
:102A400018621846006801231843014B186070474C
:102A500000200040104909680122920411430E4AE7
:102A600011600E490968042211430C4A11600021CB
:102A700011610B4991620121D1620021516211461D
:102A8000C96801221143054AD16011460968012233
:102A90001143024A11607047401002400048014053
:102AA000FFF9000070B504460122012308201E4DE5
:102AB000A86228468068012528431B4DA860002095
:102AC00009E0194D2D68ED07ED0F002D01D0002212
:102AD00005E0451CA8B27D25ED00A842F1DB1248B7
:102AE000806804252843104DA860002009E00E4DA1
:102AF0002D6804263540002D01D0002304E0451C3C
:102B0000A8B20A4DA842F2DB0748403000680880AE
:102B10000120054D28602846806802252843024D83
:102B2000A8601046184370BD0024014060EA000010
:102B30001C4909680122D20311431A4A1160072176
:102B4000194A9162FF21D162002151621146096840
:102B500080229143144A11601146096A02221143EE
:102B6000114A116211468969102291430E4A9161FE
:102B700011468969602211430B4A916111468969A6
:102B800008221143084A9161114689698908890020
:102B90009161FF2151631146096A01221143024AE2
:102BA000116270474010024000200040F0B5054619
:102BB0000C460020002C07D0204E76680127BF026B
:102BC0003E431E4F7E6006E01C4E76680127BF0222
:102BD000BE431A4F7E60194E7668FF273F04BE43FE
:102BE000164F7E603E4676681F043E43134F7E605C
:102BF0003E467668B60AB6027E603E467668164362
:102C00007E603E4676687F143E430C4F7E600C4EDD
:102C1000318805E04E1EB1B2002901D101200BE040
:102C2000064EB669002E01D1012600E000260127DC
:102C3000FF033E40002EEDD100BFF0BD0054004028
:102C40001800002010B503460122012902DB1948B3
:102C5000814201DD012010BD08460A246043401E68
:102C6000154CE0622046406901242043124C60610B
:102C700020460068012420430F4C2060002008E01B
:102C80000D4C2469E407E40F002C01D0002203E07E
:102C9000401C0A4CA042F3D307480068400840009B
:102CA000054C206020460069400840002061104625
:102CB000D1E7000060EA0000000400408096980020
:102CC00010B503460122002003E000BF00BF00BF93
:102CD000401C8842F9D3104610BD0000F8B50446E8
:102CE000002600275248406980008008504948610A
:102CF00008464069490608434D494861084600684E
:102D00000121090508434A4908604A4880680121B1
:102D10008904084347498860084680680121C9043E
:102D200008434449886044488068012109070843F2
:102D30004149886008468068C007C00F002805D058
:102D400008468068022108433B49886000250CE062
:102D500039488068C007C00F002800D107E064210F
:102D60003648FFF7ADFF681CC5B20A2DF0DB3248CC
:102D70008068C007C00F002800D001262E48C06818
:102D8000400840002C49C86008468068490508434F
:102D90002949886000250CE027488068C00FC007DB
:102DA000002800D107E064212448FFF789FF681C50
:102DB000C5B20A2DF0DB20488068C00FC00700288C
:102DC00000D001261C484030006847067F0E1A4894
:102DD000C0680121490388431749C86008208862F8
:102DE0000846406901210843134948610846406983
:102DF000022188431049486108464069042108437C
:102E00000D4948610846C068202188430A49C860C6
:102E10000846C068082188430749C8600846C0685A
:102E2000102188430449C8608814A0813046F8BD49
:102E300040100240002701400024014048030020C8
:102E400010B50446204600F083FA204600F022F830
:102E5000204600F047FA204600F0DEF92046FFF752
:102E60005FFB2046FFF712FB2046FFF761FE20467E
:102E7000FFF7D6FC2046FFF7EDFD2046FFF7B4FC38
:102E80002046FFF72BFF2046FFF74AFC2046FFF7BE
:102E9000A7FA10BDDC49496B07221143DA4A516396
:102EA000D9494031096801221143D74A40321160A3
:102EB00005210907096889088900052212071160A0
:102EC0001146C9680222114305221207D16011463A
:102ED000C96849084900D1601146096804221143B4
:102EE0000522120711601146096808229143052244
:102EF0001207116011464968022291430522120708
:102F00005160012149049161114609681022114361
:102F100005221207116011460968202291430522FB
:102F200012071160114649680422914305221207D5
:102F300051600421916111460968C02211430522A4
:102F4000120711601146096801225202114305223D
:102F50001207116011460968FF22013291430522D0
:102F6000120711601146896801225202114305229D
:102F70001207916011468968FF2201321143052230
:102F8000120791601146096A012292041143052239
:102F900012071162114609680122D202114305226B
:102FA000120711601146096801229202914305221D
:102FB00012071160114689680122D20211430522CD
:102FC000120791601146896801229202114305227D
:102FD000120791601146096801221203114305226C
:102FE000120711601146096801225203914305221C
:102FF00012071160114649684022914305221207C9
:103000005160012189059161114609680122D203AD
:10301000114305221207116011460968012292032B
:103020009143052212071160114689680122D203DB
:10303000114305221207916011468968012292030B
:1030400011430522120791601146096803221206F6
:1030500091430522120711601146C96801225206E8
:10306000114305221207D1601146C96801221206D8
:10307000914305221207D1601146096801225204CA
:10308000114305221207116011460968012212043A
:1030900091430522120711601146896801225204EA
:1030A000114305221207916011468968012212041A
:1030B00011430522120791605349896801221206C3
:1030C0001143514A916051490968802211434F4A86
:1030D000116011460968402291434C4A1160114623
:1030E000096A012212031143484A11621146096814
:1030F000032212021143454A116011460968032256
:1031000092021143414A11601146096803221203D9
:1031100011433E4A1160114609680322920311438C
:103120003A4A11603A49096812021143384A11605B
:1031300036490968012252041143344A116011468C
:10314000096892019143314A116011468968D201A0
:1031500011432E4A916011468968920111432B4A0E
:1031600091601146496A02221143284A5162114670
:10317000496A04221143254A516211464968FF22D7
:1031800001321143214A51601146C968D20191436D
:103190001E4AD1601146C968920111431B4AD16091
:1031A0001C4909680322120711431A4A1160174982
:1031B000096812021143154A11601146096812028A
:1031C0009143124A11601146496A602211430F4A25
:1031D0005162114649680122520211430B4A516063
:1031E0001146C96852029143084AD1601146C96824
:1031F00012021143054AD160064909680322920769
:103200001143044A1160704700100240000400504E
:10321000000001400008005030B5034600202E4C4D
:10322000E46B01256D052C432B4DEC632B4C24687E
:1032300064086400294D2C60294C228805E0541C48
:10324000A2B2002A01D1012005E0244C2468E40741
:10325000E40F002CF3D100BF204C246801252D037E
:10326000AC431E4D2C602C46246801256D04AC43F4
:103270001A4D2C602C4624696C252C43174D2C616B
:103280002C46246921252D022C43144D2C612C46FB
:1032900024692C612C4624690325AD052C430F4D70
:1032A0002C612C4624692C612C46246801252C4372
:1032B0000A4D2C600A4C218805E04C1CA1B2002963
:1032C00001D1012005E0054C2468E407E40F002C3F
:1032D000F3D000BF30BD0000001002400054004099
:1032E0001800002018490968012212031143164AE8
:1032F00011601649096804221143144A11601146ED
:10330000096838221143114A1160114609680222E6
:1033100091430E4A1160114609684908490011603D
:103320001146096880229143084A116011460968D4
:10333000032212021143054A116011460968402216
:103340001143024A116070474010024000300140B2
:1033500010B5024601213A48806838239843384B1B
:103360009860184600680B021843354B18601846E1
:103370000068CB021843324B18601846C06802231D
:1033800018432F4BD8601846C0688843D860184649
:10339000C068702398432A4BD8601846C0687F23C2
:1033A0001B029843264BD8601846C0680B0318438D
:1033B000234BD8601846C068C000C008D8601846C3
:1033C000C0684B0718431E4BD8601846C0688B076F
:1033D00018431B4BD8601846C0680B071843184B9E
:1033E000D860184600680B061843154B186000207B
:1033F00009E0134B1B68012464062340002B01D015
:10340000002103E0401C0F4B9842F2D30E480068A5
:10341000400840000C4B186018460068022318430F
:10342000094B18600648806838239843044B98601D
:103430001846806802231843014B9860084610BD67
:1034400000100240A08601000020024010B5024694
:1034500000201D4B5B680124A40323431A4C6360C6
:103460001A4B198805E04B1E99B2002901D10120A1
:1034700006E0154B9B690124E4032340002BF2D1A5
:1034800000BF114BDB69202423430F4CE36123462B
:10349000DB69102423430C4CE36123469B6903241E
:1034A00024022340002B0DD0074BDB69012464026A
:1034B0002343054CE3612346DB69A4152343024CF7
:1034C000E361012010BD00000054004018000020FE
:1034D00030B505462846FFF7BBF80446002C06D158
:1034E000064840690121C907084304494861284644
:1034F000FFF7AEF80443204630BD00000020024034
:10350000FCB50C4600200190A107890F002930D19D
:103510001846D917890F091889108900591A28D116
:1035200000BF2546DE17B60F3618B603360C0096D8
:1035300000201AE029682D1D002602E000BF771C3C
:10354000FEB2322EFADB8700D1550E04370E86000C
:10355000761C97550E02370E8600B61C97550F0E37
:103560008600F61C9755461CB0B2009EB042E1DBC7
:1035700001E0012001900198FCBD000070B50546F6
:103580000B4600211DE011488068022630400228C9
:1035900003D1585C0D4E307301E0012070BD00BFB7
:1035A0000A488068802630400028F9D10024074866
:1035B0008068C007C00F002801D00448047B481C65
:1035C00081B29142DFDB0020E8E7000000300140DB
:1035D0000349096849084900014A11607047000021
:1035E0000044014030B47446641E2578641CAB422C
:1035F00004D3635D5B00E31830BC18471D46F8E751
:1036000000B50248FEF7F2FA00BD000020000020DD
:1036100000B50248FEF755FB00BD0000B4020020D3
:1036200000B50248FEF78EFC00BD00000800002037
:1036300000B50248FEF7E4FC00BD000014000020C5
:103640000848FFF7FDFB0848FEF700F90748FDF7BB
:10365000E1FC05E00648FEF77FFC0448FDF7A6FE06
:10366000F8E700004803002000000020840200204A
:103670001400002070B501250400ED074C4020D453
:10368000441A01D2001B0919C60D4B00F2B2FF2AE1
:1036900029D01B0E2CD000020C02D31A2C43DC4084
:1036A0002843051910D2280A02D3401C6D0611D0F8
:1036B000761EF6058019FF2A00DA70BDC00DC00520
:1036C00070BD694000F07AF801200543C541521CE5
:1036D000761CE8E764089C40C90161408900E7D195
:1036E0000124A043E4E71B0E440200D0034870BD50
:1036F000002AFCD1C00FC00770BD00BF0000C07F12
:1037000070B5420064414B005C41120E39D01B0E73
:1037100038D0FF2A3CD0FF2B3AD040024902400A61
:10372000490A060045184E43000A090AD2184843C0
:10373000ED017F3A0104731A4019190C4318990FCF
:1037400004D001215B0849075B1A521CD80904D335
:10375000401CF50301D19D0607D0FF2A08D2D505EC
:1037600006D0E4072043401970BD0125A843F4E7C3
:10377000002A01DCE00770BD2402FF202043C005C1
:1037800070BD1B0EFF2A03D0FF2B01D0E00770BDD8
:10379000FF2645003606B54206D84D00B54203D88F
:1037A000D218FF2A00D0E7E7004870BD0000C07FB4
:1037B00070B501250400ED074C4022D4441A02D212
:1037C0006C40001B0919C60D4B00F2B2FF2A4BD00A
:1037D0001B0E50D000020C02D31A2C43DC40A8432D
:1037E000051B05D5AD0019D36D08761E521E37D0C6
:1037F000F605280A01D2801970BD70416D0603D00C
:1038000070BD6940FFF73CFF9C40090261404900E0
:1038100001D0401E70BD0124A04370BD6D081DD0B5
:1038200001202B0C01D12D0410302B0E01D12D02C3
:1038300008302B0F01D12D01001DAB0F01D1AD00C0
:10384000801CEB0F01D16D00401C6D00361A121A5E
:10385000680AF5054019012A02DB70BD002070BD21
:10386000C036300AC00770BD1B0E440201D1FF2BC9
:1038700000D1024870BD002AF0D070BD0000C07FAA
:1038800083008B0093009C00A500AF00B900C4002A
:10389000D000DC00E900F700060115012601370120
:1038A0004A015D01720188019F01B801D201EE0158
:1038B0000B022A024B026E029302BA02E4021003C8
:1038C0003F037003A403DC03160455049704DC04CF
:1038D00026057505C80520067D06E0064907B807D8
:1038E00000000000AE47E13E52B85E3F14AEA73F75
:1038F0000000E03F1F850B4014AE274033334340A8
:10390000295C5F401F857B401F858B409A999940B9
:10391000295CA740A470B5403333C340AE47D140C3
:10392000295CDF40B81EED403333FB40E17A0441AF
:103930001F850B4166661241AE471941EC5120418B
:1039400033332741713D2E41B81E354100003C41C3
:103950003D0A434185EB4941CDCC50410AD75741FF
:1039600052B85E419A996541E17A6C41295C734194
:10397000713D7A415C8F804100008441A470874191
:1039800048E18A41EC518E418FC2914133339541D8
:10399000D7A398417B149C411F859F4148E1A241D8
:1039A000EC51A6418FC2A941B81EAD415C8FB04118
:1039B0000000B441295CB74152B8BA41F628BE4173
:1039C0001F85C141C3F5C441EC51C84114AECB4180
:1039D0003D0ACF416666D2418FC2D541B81ED9415A
:1039E000E17ADC410AD7DF413333E3415C8FE641C2
:1039F00085EBE9413333ED415C8FF04185EBF341D9
:103A00003333F7415C8FFA410AD7FD415C8F0042A6
:103A1000713D024248E103421F850542F6280742F4
:103A2000CDCC0842A4700A427B140C4252B80D421D
:103A3000295C0F42C3F510429A991242713D14421B
:103A40000AD71542A47017427B14194214AE1A42C9
:103A5000AE471C4248E11D42E17A1F427B142142DD
:103A600014AE2242AE47244248E12542E17A274281
:103A70003D0A2942D7A32A4233332C428FC22D421A
:103A8000295C2F4285EB3042E17A32423D0A3442D2
:103A90009A993542F628374214AE3842713D3A427F
:103AA000CDCC3B42EC513D4248E13E42666640424D
:103AB00085EB4142A4704342C3F54442E17A464259
:103AC000000048421F85494200004B421F854C427E
:103AD00000004E421F854F4200005142E17A52429F
:103AE000C3F55342A470554285EB56426666584270
:103AF0000AD75942EC515B428FC25C42713D5E4233
:103B000014AE5F42B81E61425C8F624200006442A4
:103B1000A47065420AD76642AE47684214AE694255
:103B2000B81E6B421F856C4285EB6D42EC516F42B3
:103B300052B87042B81E72421F85734248E1744207
:103B4000AE477642D7A3774200007942295C7A4299
:103B500052B87B427B147D42A4707E428FC27F426A
:103B60005C8F80425238814248E181425C8F8242C0
:103B70005238834229DC83421F858442142E8542B9
:103B8000ECD18542E17A8642B81E87428FC28742D5
:103B9000666688423D0A894214AE8942CD4C8A420B
:103BA000A4F08A425C8F8B42142E8C42CDCC8C4286
:103BB000856B8D423D0A8E42F6A88E428F428F421F
:103BC00029DC8F42E17A90427B14914214AE9142FB
:103BD000AE47924229DC9242C37593423D0A944219
:103BE000B89E944252389542CDCC9542295C96427B
:103BF000A4F096421F8597427B149842D7A398421F
:103C0000333399428FC29942EC519A4248E19A4229
:103C1000856B9B42E1FA9B421F859C425C0F9D4253
:103C20009A999D42D7239E4214AE9E4233339F42BF
:103C300052B89F428F42A042AEC7A042AE47A142B7
:103C4000CDCCA142EC51A242ECD1A242EC51A34214
:103C50000AD7A342EC51A442ECD1A442EC51A542B4
:103C6000CDCCA542CD4CA642AEC7A6428F42A742BC
:103C700071BDA7423333A84214AEA842D723A9424C
:103C80009A99A9427B14AA421F85AA42E1FAAA4244
:103C9000A470AB4248E1AB42EC51AC428FC2AC42A3
:103CA0003333AD42D7A3AD427B14AE420080AE4267
:103CB00085EBAE420A57AF428FC2AF42142EB042DC
:103CC0007B94B0420000B1426666B142CDCCB142B5
:103CD0003333B2429A99B242E1FAB2424861B342F6
:103CE0008FC2B342D723B4421F85B44266E6B442C2
:103CF0008F42B542B89EB5420000B642295CB6423A
:103D000033B3B6425C0FB742856BB7428FC2B7423E
:103D10009A19B842A470B842AEC7B8429A19B942CB
:103D2000A470B9428FC2B9427B14BA426666BA42E5
:103D300052B8BA421F05BB420A57BB42D7A3BB4287
:103D4000A4F0BB42713DBC421F85BC42ECD1BC42D9
:103D50009A19BD424861BD42F6A8BD42A4F0BD42D9
:103D60005238BE42E17ABE4271BDBE420000BF423F
:103D70008F42BF421F85BF428FC2BF420000C04278
:103D80008F42C0420080C04252B8C042C3F5C04218
:103D9000142EC1426666C142B89EC1420AD7C142D2
:103DA0005C0FC2428F42C242E17AC24214AEC242AA
:103DB00048E1C2425C0FC3428F42C342A470C34277
:103DC000B89EC342CDCCC342E1FAC342F628C442F6
:103DD000EC51C4420080C442F6A8C442CDCCC442D7
:103DE000C3F5C442B81EC5428F42C5426666C5428D
:103DF0003D8AC54214AEC542CDCCC542A4F0C542F1
:103E00005C0FC642142EC642AE47C6426666C64224
:103E10000080C642B89EC64252B8C642ECD1C642E5
:103E200066E6C6420000C7427B14C742F628C74276
:103E3000713DC742EC51C7424861C742C375C74292
:103E40001F85C7427B94C742B89EC74214AEC74283
:103E500052B8C7428FC2C742CDCCC7420AD7C74269
:103E600048E1C74266E6C742A4F0C742C3F5C7426D
:103E7000C3F5C742E1FAC7420000C8420000C84289
:103E80000000C8420000C8420000C842E1FAC74230
:103E9000C3F5C742C3F5C742A4F0C74266E6C742AE
:103EA00048E1C7420AD7C742CDCCC7428FC2C742FA
:103EB00052B8C74214AEC742B89EC7427B94C742AD
:103EC0001F85C742C375C7424861C742EC51C7420C
:103ED000713DC742F628C7427B14C7420000C74263
:103EE00066E6C642ECD1C64252B8C642B89EC64249
:103EF0000080C6426666C642AE47C642142EC6421F
:103F00005C0FC642A4F0C542CDCCC54214AEC5423A
:103F10003D8AC5426666C5428F42C542B81EC5424B
:103F2000C3F5C442CDCCC442F6A8C4420080C4420A
:103F3000EC51C442F628C442E1FAC342CDCCC3429C
:103F4000B89EC342A470C3428F42C3425C0FC342B7
:103F500048E1C24214AEC242E17AC2428F42C2423A
:103F60005C0FC2420AD7C142B89EC1426666C142D6
:103F7000142EC142C3F5C04252B8C0420080C042B4
:103F80008F42C0420000C0428FC2BF421F85BF4265
:103F90008F42BF420000BF4271BDBE42E17ABE42C5
:103FA0005238BE42A4F0BD42F6A8BD424861BD42AF
:103FB0009A19BD42ECD1BC421F85BC42713DBC4246
:103FC000A4F0BB42D7A3BB420A57BB421F05BB426A
:103FD00052B8BA426666BA427B14BA428FC2B9423C
:103FE000A470B9429A19B942AEC7B842A470B84297
:103FF0009A19B8428FC2B742856BB7425C0FB7427D
:1040000033B3B642295CB6420000B642B89EB54210
:104010008F42B54266E6B4421F85B442D723B4420C
:104020008FC2B3424861B342E1FAB2429A99B242B6
:104030003333B242CDCCB1426666B1420000B142E8
:104040007B94B042142EB0428FC2AF420A57AF42A7
:1040500085EBAE420080AE427B14AE42D7A3AD42A8
:104060003333AD428FC2AC42EC51AC4248E1AB427B
:10407000A470AB42E1FAAA421F85AA427B14AA426D
:104080009A99A942D723A94214AEA8423333A84231
:1040900071BDA7428F42A742AEC7A642CD4CA642F1
:1040A000CDCCA542EC51A542ECD1A442EC51A442A6
:1040B0000AD7A342EC51A342ECD1A242EC51A24256
:1040C000CDCCA142AE47A142AEC7A0428F42A04292
:1040D00052B89F4233339F4214AE9E42D7239E4232
:1040E0009A999D425C0F9D421F859C42E1FA9B423A
:1040F000856B9B4248E19A42EC519A428FC29942A9
:1041000033339942D7A398427B1498421F85974234
:10411000A4F09642295C9642CDCC95425238954205
:10412000B89E94423D0A9442C375934229DC924260
:10413000AE47924214AE91427B149142E17A904292
:1041400029DC8F428F428F42F6A88E423D0A8E4272
:10415000856B8D42CDCC8C42142E8C425C8F8B4271
:10416000A4F08A42CD4C8A4214AE89423D0A89426B
:10417000666688428FC28742B81E8742E17A8642CD
:10418000ECD18542142E85421F85844229DC83426E
:10419000523883425C8F824248E1814252388142E8
:1041A0005C8F80428FC27F42A4707E427B147D422E
:1041B00052B87B42295C7A4200007942D7A3774209
:1041C000AE47764248E174421F857342B81E724280
:1041D00052B87042EC516F4285EB6D421F856C42C4
:1041E000B81E6B4214AE6942AE4768420AD76642B7
:1041F000A4706542000064425C8F6242B81E614256
:1042000014AE5F42713D5E428FC25C42EC515B4234
:104210000AD759426666584285EB5642A470554209
:10422000C3F55342E17A5242000051421F854F428A
:1042300000004E421F854C4200004B421F85494200
:1042400000004842E17A4642C3F54442A47043422A
:1042500085EB41426666404248E13E42EC513D42B8
:10426000CDCC3B42713D3A4214AE3842F62837423B
:104270009A9935423D0A3442E17A324285EB304226
:10428000295C2F428FC22D4233332C42D7A32A42BE
:104290003D0A2942E17A274248E12542AE472442BD
:1042A00014AE22427B142142E17A1F4248E11D42B2
:1042B000AE471C4214AE1A427B141942A470174236
:1042C0000AD71542713D14429A991242C3F5104221
:1042D000295C0F4252B80D427B140C42A4700A4272
:1042E000CDCC0842F62807421F85054248E103422B
:1042F000713D02425C8F00420AD7FD415C8FFA415A
:104300003333F74185EBF3415C8FF0413333ED41BB
:1043100085EBE9415C8FE6413333E3410AD7DF4166
:10432000E17ADC41B81ED9418FC2D5416666D241DF
:104330003D0ACF4114AECB41EC51C841C3F5C44155
:104340001F85C141F628BE4152B8BA41295CB74128
:104350000000B4415C8FB041B81EAD418FC2A9418D
:10436000EC51A64148E1A2411F859F417B149C412D
:10437000D7A39841333395418FC29141EC518E417F
:1043800048E18A41A4708741000084415C8F8041EC
:10439000713D7A41295C7341E17A6C419A9965419A
:1043A00052B85E410AD75741CDCC504185EB4941C7
:1043B0003D0A434100003C41B81E3541713D2E414C
:1043C00033332741EC512041AE4719416666124113
:1043D0001F850B41E17A04413333FB40B81EED40A9
:1043E000295CDF40AE47D1403333C340A470B540B1
:1043F000295CA7409A9999401F858B401F857B4077
:10440000295C5F403333434014AE27401F850B4087
:104410000000E03F14AEA73F52B85E3FAE47E13E1A
:1044200000000000AE47E1BE52B85EBF14AEA7BFA9
:104430000000E0BF1F850BC014AE27C0333343C05C
:10444000295C5FC01F857BC01F858BC09A9999C06E
:10445000295CA7C0A470B5C03333C3C0AE47D1C078
:10446000295CDFC0B81EEDC03333FBC0E17A04C164
:104470001F850BC1666612C1AE4719C1EC5120C140
:10448000333327C1713D2EC1B81E35C100003CC178
:104490003D0A43C185EB49C1CDCC50C10AD757C1B4
:1044A00052B85EC19A9965C1E17A6CC1295C73C149
:1044B000713D7AC15C8F80C1000084C1A47087C146
:1044C00048E18AC1EC518EC18FC291C1333395C18D
:1044D000D7A398C17B149CC11F859FC148E1A2C18D
:1044E000EC51A6C18FC2A9C1B81EADC15C8FB0C1CD
:1044F0000000B4C1295CB7C152B8BAC1F628BEC128
:104500001F85C1C1C3F5C4C1EC51C8C114AECBC134
:104510003D0ACFC16666D2C18FC2D5C1B81ED9C10E
:10452000E17ADCC10AD7DFC13333E3C15C8FE6C176
:1045300085EBE9C13333EDC15C8FF0C185EBF3C18D
:104540003333F7C15C8FFAC10AD7FDC15C8F00C25B
:10455000713D02C248E103C21F8505C2F62807C2A9
:10456000CDCC08C2A4700AC27B140CC252B80DC2D2
:10457000295C0FC2C3F510C29A9912C2713D14C2D0
:104580000AD715C2A47017C27B1419C214AE1AC27E
:10459000AE471CC248E11DC2E17A1FC27B1421C292
:1045A00014AE22C2AE4724C248E125C2E17A27C236
:1045B0003D0A29C2D7A32AC233332CC28FC22DC2CF
:1045C000295C2FC285EB30C2E17A32C23D0A34C287
:1045D0009A9935C2F62837C214AE38C2713D3AC234
:1045E000CDCC3BC2EC513DC248E13EC2666640C202
:1045F00085EB41C2A47043C2C3F544C2E17A46C20E
:10460000000048C21F8549C200004BC21F854CC232
:1046100000004EC21F854FC2000051C2E17A52C253
:10462000C3F553C2A47055C285EB56C2666658C224
:104630000AD759C2EC515BC28FC25CC2713D5EC2E7
:1046400014AE5FC2B81E61C25C8F62C2000064C259
:10465000A47065C20AD766C2AE4768C214AE69C20A
:10466000B81E6BC21F856CC285EB6DC2EC516FC268
:1046700052B870C2B81E72C21F8573C248E174C2BC
:10468000AE4776C2D7A377C2000079C2295C7AC24E
:1046900052B87BC27B147DC2A4707EC28FC27FC21F
:1046A0005C8F80C2523881C248E181C25C8F82C275
:1046B000523883C229DC83C21F8584C2142E85C26E
:1046C000ECD185C2E17A86C2B81E87C28FC287C28A
:1046D000666688C23D0A89C214AE89C2CD4C8AC2C0
:1046E000A4F08AC25C8F8BC2142E8CC2CDCC8CC23B
:1046F000856B8DC23D0A8EC2F6A88EC28F428FC2D4
:1047000029DC8FC2E17A90C27B1491C214AE91C2AF
:10471000AE4792C229DC92C2C37593C23D0A94C2CD
:10472000B89E94C2523895C2CDCC95C2295C96C22F
:10473000A4F096C21F8597C27B1498C2D7A398C2D3
:10474000333399C28FC299C2EC519AC248E19AC2DE
:10475000856B9BC2E1FA9BC21F859CC25C0F9DC208
:104760009A999DC2D7239EC214AE9EC233339FC274
:1047700052B89FC28F42A0C2AEC7A0C2AE47A1C26C
:10478000CDCCA1C2EC51A2C2ECD1A2C2EC51A3C2C9
:104790000AD7A3C2EC51A4C2ECD1A4C2EC51A5C269
:1047A000CDCCA5C2CD4CA6C2AEC7A6C28F42A7C271
:1047B00071BDA7C23333A8C214AEA8C2D723A9C201
:1047C0009A99A9C27B14AAC21F85AAC2E1FAAAC2F9
:1047D000A470ABC248E1ABC2EC51ACC28FC2ACC258
:1047E0003333ADC2D7A3ADC27B14AEC20080AEC21C
:1047F00085EBAEC20A57AFC28FC2AFC2142EB0C291
:104800007B94B0C20000B1C26666B1C2CDCCB1C269
:104810003333B2C29A99B2C2E1FAB2C24861B3C2AA
:104820008FC2B3C2D723B4C21F85B4C266E6B4C276
:104830008F42B5C2B89EB5C20000B6C2295CB6C2EE
:1048400033B3B6C25C0FB7C2856BB7C28FC2B7C2F3
:104850009A19B8C2A470B8C2AEC7B8C29A19B9C280
:10486000A470B9C28FC2B9C27B14BAC26666BAC29A
:1048700052B8BAC21F05BBC20A57BBC2D7A3BBC23C
:10488000A4F0BBC2713DBCC21F85BCC2ECD1BCC28E
:104890009A19BDC24861BDC2F6A8BDC2A4F0BDC28E
:1048A0005238BEC2E17ABEC271BDBEC20000BFC2F4
:1048B0008F42BFC21F85BFC28FC2BFC20000C0C22D
:1048C0008F42C0C20080C0C252B8C0C2C3F5C0C2CD
:1048D000142EC1C26666C1C2B89EC1C20AD7C1C287
:1048E0005C0FC2C28F42C2C2E17AC2C214AEC2C25F
:1048F00048E1C2C25C0FC3C28F42C3C2A470C3C22C
:10490000B89EC3C2CDCCC3C2E1FAC3C2F628C4C2AA
:10491000EC51C4C20080C4C2F6A8C4C2CDCCC4C28B
:10492000C3F5C4C2B81EC5C28F42C5C26666C5C241
:104930003D8AC5C214AEC5C2CDCCC5C2A4F0C5C2A5
:104940005C0FC6C2142EC6C2AE47C6C26666C6C2D9
:104950000080C6C2B89EC6C252B8C6C2ECD1C6C29A
:1049600066E6C6C20000C7C27B14C7C2F628C7C22B
:10497000713DC7C2EC51C7C24861C7C2C375C7C247
:104980001F85C7C27B94C7C2B89EC7C214AEC7C238
:1049900052B8C7C28FC2C7C2CDCCC7C20AD7C7C21E
:1049A00048E1C7C266E6C7C2A4F0C7C2C3F5C7C222
:1049B000C3F5C7C2E1FAC7C20000C8C20000C8C23E
:1049C0000000C8C20000C8C20000C8C2E1FAC7C2E5
:1049D000C3F5C7C2C3F5C7C2A4F0C7C266E6C7C263
:1049E00048E1C7C20AD7C7C2CDCCC7C28FC2C7C2AF
:1049F00052B8C7C214AEC7C2B89EC7C27B94C7C262
:104A00001F85C7C2C375C7C24861C7C2EC51C7C2C0
:104A1000713DC7C2F628C7C27B14C7C20000C7C217
:104A200066E6C6C2ECD1C6C252B8C6C2B89EC6C2FD
:104A30000080C6C26666C6C2AE47C6C2142EC6C2D3
:104A40005C0FC6C2A4F0C5C2CDCCC5C214AEC5C2EF
:104A50003D8AC5C26666C5C28F42C5C2B81EC5C200
:104A6000C3F5C4C2CDCCC4C2F6A8C4C20080C4C2BF
:104A7000EC51C4C2F628C4C2E1FAC3C2CDCCC3C251
:104A8000B89EC3C2A470C3C28F42C3C25C0FC3C26C
:104A900048E1C2C214AEC2C2E17AC2C28F42C2C2EF
:104AA0005C0FC2C20AD7C1C2B89EC1C26666C1C28B
:104AB000142EC1C2C3F5C0C252B8C0C20080C0C269
:104AC0008F42C0C20000C0C28FC2BFC21F85BFC21A
:104AD0008F42BFC20000BFC271BDBEC2E17ABEC27A
:104AE0005238BEC2A4F0BDC2F6A8BDC24861BDC264
:104AF0009A19BDC2ECD1BCC21F85BCC2713DBCC2FB
:104B0000A4F0BBC2D7A3BBC20A57BBC21F05BBC21E
:104B100052B8BAC26666BAC27B14BAC28FC2B9C2F0
:104B2000A470B9C29A19B9C2AEC7B8C2A470B8C24B
:104B30009A19B8C28FC2B7C2856BB7C25C0FB7C231
:104B400033B3B6C2295CB6C20000B6C2B89EB5C2C5
:104B50008F42B5C266E6B4C21F85B4C2D723B4C2C1
:104B60008FC2B3C24861B3C2E1FAB2C29A99B2C26B
:104B70003333B2C2CDCCB1C26666B1C20000B1C29D
:104B80007B94B0C2142EB0C28FC2AFC20A57AFC25C
:104B900085EBAEC20080AEC27B14AEC2D7A3ADC25D
:104BA0003333ADC28FC2ACC2EC51ACC248E1ABC230
:104BB000A470ABC2E1FAAAC21F85AAC27B14AAC222
:104BC0009A99A9C2D723A9C214AEA8C23333A8C2E6
:104BD00071BDA7C28F42A7C2AEC7A6C2CD4CA6C2A6
:104BE000CDCCA5C2EC51A5C2ECD1A4C2EC51A4C25B
:104BF0000AD7A3C2EC51A3C2ECD1A2C2EC51A2C20B
:104C0000CDCCA1C2AE47A1C2AEC7A0C28F42A0C246
:104C100052B89FC233339FC214AE9EC2D7239EC2E6
:104C20009A999DC25C0F9DC21F859CC2E1FA9BC2EE
:104C3000856B9BC248E19AC2EC519AC28FC299C25D
:104C4000333399C2D7A398C27B1498C21F8597C2E9
:104C5000A4F096C2295C96C2CDCC95C2523895C2BA
:104C6000B89E94C23D0A94C2C37593C229DC92C215
:104C7000AE4792C214AE91C27B1491C2E17A90C247
:104C800029DC8FC28F428FC2F6A88EC23D0A8EC227
:104C9000856B8DC2CDCC8CC2142E8CC25C8F8BC226
:104CA000A4F08AC2CD4C8AC214AE89C23D0A89C220
:104CB000666688C28FC287C2B81E87C2E17A86C282
:104CC000ECD185C2142E85C21F8584C229DC83C223
:104CD000523883C25C8F82C248E181C2523881C29D
:104CE0005C8F80C28FC27FC2A4707EC27B147DC2E3
:104CF00052B87BC2295C7AC2000079C2D7A377C2BE
:104D0000AE4776C248E174C21F8573C2B81E72C234
:104D100052B870C2EC516FC285EB6DC21F856CC278
:104D2000B81E6BC214AE69C2AE4768C20AD766C26B
:104D3000A47065C2000064C25C8F62C2B81E61C20A
:104D400014AE5FC2713D5EC28FC25CC2EC515BC2E9
:104D50000AD759C2666658C285EB56C2A47055C2BE
:104D6000C3F553C2E17A52C2000051C21F854FC23F
:104D700000004EC21F854CC200004BC21F8549C2B5
:104D8000000048C2E17A46C2C3F544C2A47043C2DF
:104D900085EB41C2666640C248E13EC2EC513DC26D
:104DA000CDCC3BC2713D3AC214AE38C2F62837C2F0
:104DB0009A9935C23D0A34C2E17A32C285EB30C2DB
:104DC000295C2FC28FC22DC233332CC2D7A32AC273
:104DD0003D0A29C2E17A27C248E125C2AE4724C272
:104DE00014AE22C27B1421C2E17A1FC248E11DC267
:104DF000AE471CC214AE1AC27B1419C2A47017C2EB
:104E00000AD715C2713D14C29A9912C2C3F510C2D5
:104E1000295C0FC252B80DC27B140CC2A4700AC226
:104E2000CDCC08C2F62807C21F8505C248E103C2DF
:104E3000713D02C25C8F00C20AD7FDC15C8FFAC10E
:104E40003333F7C185EBF3C15C8FF0C13333EDC170
:104E500085EBE9C15C8FE6C13333E3C10AD7DFC11B
:104E6000E17ADCC1B81ED9C18FC2D5C16666D2C194
:104E70003D0ACFC114AECBC1EC51C8C1C3F5C4C10A
:104E80001F85C1C1F628BEC152B8BAC1295CB7C1DD
:104E90000000B4C15C8FB0C1B81EADC18FC2A9C142
:104EA000EC51A6C148E1A2C11F859FC17B149CC1E2
:104EB000D7A398C1333395C18FC291C1EC518EC134
:104EC00048E18AC1A47087C1000084C15C8F80C1A1
:104ED000713D7AC1295C73C1E17A6CC19A9965C14F
:104EE00052B85EC10AD757C1CDCC50C185EB49C17C
:104EF0003D0A43C100003CC1B81E35C1713D2EC101
:104F0000333327C1EC5120C1AE4719C1666612C1C7
:104F10001F850BC1E17A04C13333FBC0B81EEDC05D
:104F2000295CDFC0AE47D1C03333C3C0A470B5C065
:104F3000295CA7C09A9999C01F858BC01F857BC02B
:104F4000295C5FC0333343C014AE27C01F850BC03C
:104F50000000E0BF14AEA7BF52B85EBFAE47E1BECF
:104F60000000000204070A0F161E28344253667C14
:104F700094B0CFFF80807F7E7D7C7B7A7978777656
:104F800076757473727171706F6E6E6D6C6C6B6A26
:104F90006A696868676666656464636362616160C4
:104FA000605F5F5E5E5D5D5C5C5B5B5A5A59595841
:104FB00058575756565555555454535352525251AB
:104FC000515050504F4F4F4E4E4D4D4D4C4C4C4B01
:104FD0004B4B4A4A4A494949484848474747474648
:104FE0004646454545444444444343434342424284
:104FF000424141418182838485868788898B8C8D5B
:105000008E8F919293959697999A9C9D9FA0A2A31B
:10501000A5A7A8AAACAEB0B2B3B5B7B9BCBEC0C262
:10502000C5C7C9CCCED1D4D7D9DCDFE2E6E9ECF0F4
:10503000F3F7FAFE64500008000000202000000092
:105040000401000884500008200000209809000096
:1050500020010008ADE5FFFFB9E5FFFFC5E5FFFF53
:10506000D1E5FFFF007F010001007F00000000008C
:10507000000000000000000000000000E803003015
:04508000303030009C
:04000005080000C12E
:00000001FF
